:100000000C943D000C94D1060C94D1060C94D106AE
:100010000C94D1060C94D1060C94D1060C94D10604
:100020000C94D1060C94D1060C94D1060C94F505D1
:100030000C94D1060C94D1060C9463030C94D10655
:100040000C94D1060C94D1060C94D1060C94D106D4
:100050000C94D1060C94D1060C94D1060C94D106C4
:100060000C94D1060C94D1060100012280012201DA
:1000700034000DAE0134013C800011241FBECFEFCF
:10008000D8E0DEBFCDBFE8E6F0E040E017C0B591B4
:10009000A59135912591059107FD0CC0959185910C
:1000A000EF01F92FE82F05900D92A217B307D9F7AA
:1000B000FE0104C01D92A217B307E1F7E937F40768
:0E00C00031F70E94EA030C946500F894FFCF1C
:1000CE000F931F93CF93DF938091040180FF99C00C
:1000DE0010921F0180911D01C0E3D1E0EDEC8E9FC7
:1000EE00812D1124869586958695888390911D0184
:1000FE009E9F812D1124869586958695880F282F93
:10010E00220F220F820F981B9983A0911C01AE9F84
:10011E00A12D11242A2F2695269526952A83909176
:10012E001C019E9FE12D1124E695E695E695EE0FB6
:10013E008E2F880F880FE80F9E1BE92F9B838091CF
:10014E001E0180FD2EC010921F0180911D01811194
:10015E0005C081E0888382E0898323C080911D01E0
:10016E008C3021F481E080931F011BC080911D0112
:10017E008D30B8F080911D01C0E3D1E090E00C9776
:10018E000AE010E0B8010E945206688380911D01BA
:10019E0090E00C97B8010E945206898381E080930B
:1001AE001F01C2E1D1E080E391E0DC013C91A32F7D
:1001BE00B0E0AE5DBE4F3C913883DC0111968C9160
:1001CE00A82FB0E0AE5DBE4F8C918983A22FB0E018
:1001DE00AE5DBE4F9C919A83F0E0EE5DFE4F908136
:1001EE009B8320911F01222319F09F779093150175
:1001FE0090910C01992309F4ADC08F778093130170
:10020E00A9C08091040181FF4AC0E0911C01A2E1C6
:10021E00B1E08DECE89FE12D1124E695E695E6958B
:10022E00F0E0EE5DFE4F90819C93E0911C01E89F03
:10023E00912D1124969596959695990F292F220F0B
:10024E00220F920FE91BF0E0EE5DFE4F90819F773B
:10025E0011969C931197E0911801E89FE12D1124BE
:10026E00E695E695E695F0E0EE5DFE4F90811296EE
:10027E009C931297E0911801E89F812D1124869589
:10028E0086958695880F982F990F990F890FE81BE1
:10029E00F0E0EE5DFE4F808113968C935BC08091F3
:1002AE00040182FF03C00E945D0454C080910401CA
:1002BE0083FF03C00E945D044DC08091040184FF42
:1002CE0049C0E0910501A2E1B1E08DECE89FE12D7E
:1002DE001124E695E695E695F0E0EE5DFE4F9081F1
:1002EE009C93E0910501E89F912D1124969596958A
:1002FE009695990F292F220F220F920FE91BF0E0EE
:10030E00EE5DFE4F90819F7711969C931197E09131
:10031E002001E89FE12D1124E695E695E695F0E0A3
:10032E00EE5DFE4F908112969C931297E091200104
:10033E00E89F812D1124869586958695880F982F96
:10034E00990F990F890FE81BF0E0EE5DFE4F80814B
:0E035E0013968C93DF91CF911F910F9108950C
:10036C000E943806811103C010921B0105C19091A7
:10037C001B01911113C1853009F060C090910401EB
:10038C0090FFFAC080913B0181110BC081E08093FA
:10039C003B01809106019091070190933701809366
:1003AC003601809106019091070120913601309120
:1003BC003701821B930B813D974008F46DC08091EF
:1003CC0006019091070190933701809336011092AA
:1003DC003B0181E080933A0180911601882321F141
:1003EC00809104018E7F80930401809104018D7FA4
:1003FC0080930401809104018860809304018091B2
:10040C0004018F7E80930401809104018B7F809383
:10041C00040180911E01826080931E0181E0809313
:10042C001B0110921601089580911E0180959091E8
:10043C001E0180FB90F990931E012EC090913B0100
:10044C00992329F090913A01992309F49AC01092BA
:10045C003A0110923B012091060130910701309333
:10046C003701209336018130B9F4809104018E7FDD
:10047C0080930401809104018D7F8093040180910D
:10048C00040184608093040180911E01826080933A
:10049C001E0181E080931B010E94C5048330E9F4A6
:1004AC0080911901811113C081E090910B01911180
:1004BC0080E080930B019091090181E0911180E023
:1004CC008093090195B188E0892785B908950E9428
:1004DC00D50681E0809317010895843009F05EC041
:1004EC008091040180FF11C0809104018E7F809364
:1004FC0004018091040182608093040180910401C5
:10050C008F7E809304012A9A089580910B01882391
:10051C00A9F08091040181FF11C0809104018E7FAC
:10052C0080930401809104018D7F8093040180915C
:10053C0004018061809304012A980895809104013C
:10054C00816080930401809104018D7F809304016C
:10055C00809104018F7E809304012A9A0895109251
:10056C003A0110923B018091060190910701909302
:10057C0037018093360190CF90913B01911162CF5E
:10058C00EECF10923A0110923B01809106019091AE
:0E059C000701909337018093360167CF0895D1
:1005AA00CF93C82F0E94C50496B19E709E3019F44D
:1005BA0010921B0104C090911B0191117DC08130E2
:1005CA00E1F580911E0181FF06C080911E018D7F99
:1005DA0080931E0171C0CC2381F080911101809318
:1005EA001D0180910A0180931C01109218018091CB
:1005FA0004018B7F8093040117C0809111018093BD
:10060A00050180910A018093200180910401877F6E
:10061A008093040181E080931B0180930B018093F6
:10062A001A01809309012F988091040181608093B7
:10063A00040181E080931B013FC0833051F4809113
:10064A001901882379F00E94D50681E08093170169
:10065A0033C091E0843009F090E0892F81958111AF
:10066A0002C02AC081E090911E0191FF13C09091AF
:10067A001101890F8093110180911101883111F4C0
:10068A0010921101809111018F3FB1F487E180939B
:10069A00110112C090910A01890F80930A01809179
:1006AA000A018C3311F410920A0180910A018F3FDA
:0C06BA0019F48BE380930A01CF9108959E
:1006C6001F920F920FB60F9211242F933F934F93C1
:1006D6005F936F937F938F939F93AF93BF93EF93A4
:1006E600FF9380910601909107010196909307016F
:1006F6008093060180910F019091100101969093CD
:10070600100180930F0180911901882349F00E94FE
:10071600C504833029F40E94D50681E08093170131
:1007260080910F0190911001883E934009F03EC0E0
:100736008091040180FF07C090910C0181E0911126
:1007460080E080930C018091040183FF04C095B181
:1007560088E0892785B9809118018F5F80931801F9
:100766001092100110920F01809118018C33F1F450
:1007760081E080931A011092180180911C018F5F0D
:1007860080931C0180911C018C3381F410921C0112
:1007960080911D018F5F80931D0180911D0188311D
:1007A60029F410921D0181E080930901FF91EF91D8
:1007B600BF91AF919F918F917F916F915F914F9173
:0E07C6003F912F910F900FBE0F901F9018952E
:1007D4006FEF70E084E190E00E94AF060E9489060A
:1007E4000E9498060E947A060E94B70681E08093D0
:1007F40008011092100110920F0190E190930301EF
:10080400809321010E94CD0578940E94A4068695C8
:100814008695809303016091180180911C010E94C8
:100824006700809103018823E9F0809121018823E6
:10083400A9F0E0910801F0E0EE5EFE4F8081809522
:100844000E946505809108018F5F80930801809163
:100854000801843050F01092080107C080E00E9423
:10086400650503C080E00E9465058091040180FD58
:1008740008C08091040181FD04C08091040184FFBB
:1008840003C00E94B6010CC08091040182FF03C022
:100894000E94C90605C08091040183FD0E94CD0613
:1008A40080911A01882321F00E94190610921A01DE
:0608B4000E942A05AACFF4
:1008BA0080911E0181FF32C0A2E1B1E08FEF129652
:1008CA008C93129713968C9313979091110187E644
:1008DA009802E12D1124E595E59597FDE3950E2EF5
:1008EA00000CFF0BEE5DFE4F90819C93E09111018D
:1008FA00E802812D112485958595E7FD8395880F5A
:10090A00982F990F990F890FE81B0E2E000CFF0BD9
:10091A00EE5DFE4F808111968C930895A2E1B1E0BD
:10092A008FEF8C9311968C93119790910A0187E619
:10093A009802E12D1124E595E59597FDE3950E2E94
:10094A00000CFF0BEE5DFE4F908112969C9312975E
:10095A00E0910A01E802812D112485958595E7FD2C
:10096A008395880F982F990F990F890FE81B0E2EE0
:10097A00000CFF0BEE5DFE4F808113968C93089559
:10098A00329904C0329904C083E003C080E001C0F8
:10099A0080E0319902C0319B81E0339902C0339BD8
:1009AA003CC020913901222359F0811109C096B126
:1009BA009E709E30B1F496B19E709E30E1F711C0E0
:1009CA0082132FC020910601309107014091340112
:1009DA0050913501241B350B293E334038F580E010
:1009EA0008959091040190FF2BC006C090910401D4
:1009FA0094FF02C0821759F08093390120910601B1
:100A0A00309107013093350120933401089580E035
:100A1A00089580E0089580E008952091390184E0E6
:100A2A00CFCF9091040190FDE7CF0AC090910401C5
:100A3A0090FDEFCF9091040191FDEDCF282FD6CFF5
:0A0A4A009091040191FDD8CFD1CFA7
:100A54008091040183FD31C080910B01882369F1E9
:100A64008091190181112CC080910901882351F1D1
:100A74002B9890911D018091050198131EC09091AF
:100A84001C0180912001981318C00E94D30681E0B4
:100A940080931901809106019091070190930101BF
:100AA40080930001809106019091070190930E01BB
:100AB40080930D011092090103C0809119018111E5
:060AC4000E949A0508954E
:100ACA000F931F93CF93DF935C98C7E0D0E0082F72
:100ADA0010E0C8010C2E02C0959587950A94E2F79A
:100AEA0081700E94BE065F985F9A219790F7C7E0CF
:100AFA00D0E0E0910801F0E0E45DFE4F808190E0F3
:100B0A00809590950C2E02C0959587950A94E2F7E8
:100B1A0081700E94BE065F985F9A219750F75C9A8F
:0A0B2A00DF91CF911F910F91089504
:100B340080910601909107012091000130910101FB
:100B4400821B930B8938934138F00E94D50610928A
:100B540019011092170108958091060190910701DF
:100B640020910D0130910E01821B930B853F914022
:100B740088F0809106019091070190930E01809373
:100B84000D0180911701811103C00E94C4060895CC
:060B94000E94D506089541
:100B9A0080910401816080930401809104018D7F1A
:100BAA0080930401809104018B7F809304018091DA
:100BBA000401877F80930401809104018F7E8093D2
:100BCA00040180911E01816080931E0180911E01A3
:100BDA00826080931E0110921F0110920C010895E9
:100BEA001F920F920FB60F9211248F939F938091A9
:100BFA0002018F5F809302019091020180910301AB
:100C0A00981710F01092210180910201803428F087
:100C1A0081E080932101109202019F918F910F90A0
:080C2A000FBE0F901F901895FA
:100C320060911D0188E090E00E94AF0660911C0166
:100C420089E090E00E94AF06609105018AE090E0A1
:100C52000E94AF06609120018BE090E00E94AF06F7
:0E0C620060910B018CE090E00E94AF060895B7
:100C7000319912C0329909C080913801811110C098
:100C800081E08093160185E008951092160181E0BD
:100C90008093380185E008951092380180E008952E
:040CA00085E008954E
:100CA40097FB072E16F4009407D077FD09D00E9415
:100CB400660607FC05D03EF4909581959F4F0895F4
:080CC400709561957F4F0895C2
:100CCC00AA1BBB1B51E107C0AA1FBB1FA617B70766
:100CDC0010F0A61BB70B881F991F5A95A9F7809582
:080CEC009095BC01CD010895B3
:100CF400109280008AE08093810088E391E09093D1
:0E0D040089008093880082E080936F0008953C
:100D1200209A8AB188698AB95B9A87B1807F87B93C
:0E0D220084B18C6084B985B18C6085B9089568
:100D300082E084BD93E095BD16BC9AEF97BD18BCC8
:080D400080936E0015BA0895BE
:100D4800EAE7F0E0808180648083808186FDFDCFC2
:060D58008091790008956E
:100D5E00F999FECF92BD81BD60BDFA9AF99A0895B8
:0E0D6E0080E680937C0086E880937A000895EA
:0C0D7C00882311F0289A08952898089503
:0A0D88009BB188E089278BB908951C
:080D920081E00E94D5020895E2
:080D9A0080E00E94D5020895DB
:040DA2000C940000AD
:040DA6005B980895B9
:040DAA005B9A0895B3
:0A0DAE00C0F9A4B0999282F8809079
:040DB800F1F2F4F868
:040DBC000102030429
:00000001FF
